{
  "contractName": "Contest",
  "abi": [
    {
      "constant": true,
      "inputs": [
        {
          "name": "",
          "type": "address"
        }
      ],
      "name": "voters",
      "outputs": [
        {
          "name": "",
          "type": "bool"
        }
      ],
      "payable": false,
      "stateMutability": "view",
      "type": "function",
      "signature": "0xa3ec138d"
    },
    {
      "constant": true,
      "inputs": [
        {
          "name": "",
          "type": "uint256"
        }
      ],
      "name": "contestants",
      "outputs": [
        {
          "name": "id",
          "type": "uint256"
        },
        {
          "name": "name",
          "type": "string"
        },
        {
          "name": "voteCount",
          "type": "uint256"
        }
      ],
      "payable": false,
      "stateMutability": "view",
      "type": "function",
      "signature": "0xdfd50f52"
    },
    {
      "constant": true,
      "inputs": [],
      "name": "contestantsCount",
      "outputs": [
        {
          "name": "",
          "type": "uint256"
        }
      ],
      "payable": false,
      "stateMutability": "view",
      "type": "function",
      "signature": "0xec63d1c8"
    },
    {
      "inputs": [],
      "payable": false,
      "stateMutability": "nonpayable",
      "type": "constructor",
      "signature": "constructor"
    },
    {
      "anonymous": false,
      "inputs": [
        {
          "indexed": true,
          "name": "_contestantId",
          "type": "uint256"
        }
      ],
      "name": "votedEvent",
      "type": "event",
      "signature": "0xfff3c900d938d21d0990d786e819f29b8d05c1ef587b462b939609625b684b16"
    },
    {
      "constant": false,
      "inputs": [
        {
          "name": "_contestantId",
          "type": "uint256"
        }
      ],
      "name": "vote",
      "outputs": [],
      "payable": false,
      "stateMutability": "nonpayable",
      "type": "function",
      "signature": "0x0121b93f"
    }
  ],
  "bytecode": "0x6080604052600060025534801561001557600080fd5b506100636040805190810160405280600381526020017f61626300000000000000000000000000000000000000000000000000000000008152506100b5640100000000026401000000009004565b6100b06040805190810160405280600381526020017f64656600000000000000000000000000000000000000000000000000000000008152506100b5640100000000026401000000009004565b6101d6565b600260008154809291906001019190505550606060405190810160405280600254815260200182815260200160008152506000806002548152602001908152602001600020600082015181600001556020820151816001019080519060200190610120929190610131565b506040820151816002015590505050565b828054600181600116156101000203166002900490600052602060002090601f016020900481019282601f1061017257805160ff19168380011785556101a0565b828001600101855582156101a0579182015b8281111561019f578251825591602001919060010190610184565b5b5090506101ad91906101b1565b5090565b6101d391905b808211156101cf5760008160009055506001016101b7565b5090565b90565b61042e806101e56000396000f3fe608060405260043610610062576000357c0100000000000000000000000000000000000000000000000000000000900463ffffffff1680630121b93f14610067578063a3ec138d146100a2578063dfd50f521461010b578063ec63d1c8146101cd575b600080fd5b34801561007357600080fd5b506100a06004803603602081101561008a57600080fd5b81019080803590602001909291905050506101f8565b005b3480156100ae57600080fd5b506100f1600480360360208110156100c557600080fd5b81019080803573ffffffffffffffffffffffffffffffffffffffff16906020019092919050505061031a565b604051808215151515815260200191505060405180910390f35b34801561011757600080fd5b506101446004803603602081101561012e57600080fd5b810190808035906020019092919050505061033a565b6040518084815260200180602001838152602001828103825284818151815260200191508051906020019080838360005b83811015610190578082015181840152602081019050610175565b50505050905090810190601f1680156101bd5780820380516001836020036101000a031916815260200191505b5094505050505060405180910390f35b3480156101d957600080fd5b506101e26103fc565b6040518082815260200191505060405180910390f35b600160003373ffffffffffffffffffffffffffffffffffffffff1673ffffffffffffffffffffffffffffffffffffffff16815260200190815260200160002060009054906101000a900460ff1615151561025157600080fd5b60008111801561026357506002548111155b151561026e57600080fd5b6000808281526020019081526020016000206002016000815480929190600101919050555060018060003373ffffffffffffffffffffffffffffffffffffffff1673ffffffffffffffffffffffffffffffffffffffff16815260200190815260200160002060006101000a81548160ff021916908315150217905550807ffff3c900d938d21d0990d786e819f29b8d05c1ef587b462b939609625b684b1660405160405180910390a250565b60016020528060005260406000206000915054906101000a900460ff1681565b6000602052806000526040600020600091509050806000015490806001018054600181600116156101000203166002900480601f0160208091040260200160405190810160405280929190818152602001828054600181600116156101000203166002900480156103ec5780601f106103c1576101008083540402835291602001916103ec565b820191906000526020600020905b8154815290600101906020018083116103cf57829003601f168201915b5050505050908060020154905083565b6002548156fea165627a7a72305820eec1d37efabf63b299c7311547b77550a81b2a447ee05f3025878bfac6d205be0029",
  "source": "pragma solidity ^0.5.0;\r\n\r\ncontract Contest{\r\n\tstruct Contestant{\r\n\t\tuint id;\r\n\t\tstring name;\r\n\t\tuint voteCount;\r\n\t}\r\n\t// mapping function fetches data \r\n\tmapping(uint=>Contestant) public contestants;\r\n\t//to save list of people who already voted\r\n\tmapping(address =>bool) public voters;\r\n\t// length(contestants) canot be used as default values exist till the end\r\n\tuint public contestantsCount=0 ;\r\n\t\r\n\tfunction addContestant (string memory _name) private{\r\n\t// underscore is added as name is private entity so public can't add contestants \r\n\t\tcontestantsCount++;\r\n\t\tcontestants[contestantsCount] = Contestant(contestantsCount, _name, 0);\r\n\t\t\r\n\t} \r\n\t//event function used to catch event and reload thw pgae when tx happens\r\n\tevent votedEvent(\r\n\t\tuint indexed _contestantId\r\n\t);\r\n\r\n\tconstructor() public{\r\n\t\taddContestant(\"abc\");\r\n\t\taddContestant(\"def\");\r\n\t}\r\n\r\n\tfunction vote(uint _contestantId) public{\r\n\t\t//restrict perosn who already cast vote\r\n\t\trequire(!voters[msg.sender]);//msg.sender not present in voters mapping\r\n\t\trequire(_contestantId>0 && _contestantId<= contestantsCount);//to check if valid user is voted for \r\n\t\tcontestants[_contestantId].voteCount++;\r\n\t\tvoters[msg.sender] = true;// msg.sender is the metadeta, we can browse it by using this command\r\n\t\temit votedEvent(_contestantId); //emit is used on new version to call event\r\n\t}\r\n} ",
  "sourcePath": "C:/contest/contracts/contest.sol",
  "compiler": {
    "name": "solc",
    "version": "0.5.0+commit.1d4f565a.Emscripten.clang"
  },
  "schemaVersion": "3.0.2",
  "updatedAt": "2019-06-24T09:45:47.424Z",
  "devdoc": {
    "methods": {}
  },
  "userdoc": {
    "methods": {}
  }
}